:100000001BC02AC029C028C027C026C025C024C0C4
:1000100023C022C021C020C01FC01EC01DC01CC0E4
:100020001BC01AC019C095C097C09AC09DC0A0C07F
:10003000A3C0A6C08AC086C011241FBECFE5D4E0ED
:10004000DEBFCDBF10E0A0E6B0E001C01D92A73634
:10005000B107E1F799D09CC1D3CF10926600181672
:1000600019060CF042C060E358E248E131C0C09A82
:1000700065BBEFE1FEE43197F1F700C0000020918D
:10008000610022BB20916400222369F1C09A55BB14
:10009000EFE1FEE43197F1F700C00000209162002B
:1000A00022BB209165002223E1F0C09A45BBEFE11D
:1000B000FEE43197F1F700C00000209166002F5F49
:1000C00020936600332727FD3095281739076CF4F5
:1000D0002091600022BB209163002111C8CFC098FD
:1000E000C7CFC098E3CFC098D2CF80E090E008950A
:1000F00010926000109261001092620010926300F2
:1001000010926400109265000895109260001092A1
:1001100061001092620010926300109264001092CD
:10012000650081E090E099CF6150710901978930B5
:10013000910550F48D5E9F4FFB01E05AFF4F8F9366
:100140009F93089581E083830895808180688083F0
:10015000089581E08083089580818260808308957E
:100160008081846080830895808188608083089581
:10017000808180618083089580818062808308957A
:1001800080818064808308958FEF81BB81E087BB8D
:1001900088E384BBBA98C29A80E0AA24A394C2E9F7
:1001A00091E1E92E11E028E3F22E04E534E2C32EBA
:1001B00049E4D42E96B38A1178C096B38823D1F33C
:1001C00092FDF8CF809161008269809361008EE199
:1001D00090E043DF1092630010926400109265007B
:1001E000C0936100C0936000C09362008EE190E014
:1001F00034DFDAE0E092600010936300E092610087
:1002000010936400E09262001093650085E090E036
:1002100024DF109263001092640010926500F09247
:100220006000F0926100F092620085E090E015DFDE
:1002300010926300109264001092650000936000B9
:10024000009361000093620085E090E006DF109269
:1002500063001092640010926500C0936000C09328
:100260006100C093620085E090E0F7DE10926000CC
:10027000109261001092620010926300109264006C
:1002800010926500D15009F0B5CF3FDF2FEF83EC1E
:1002900099E0215080409040E1F700C0000086B313
:1002A00080E096B38A1509F488CF92FD86CF8091BD
:1002B00061008269809361008EE190E0CEDE109251
:1002C00060001092620010926300109265008FEF40
:1002D00080936100109364008EE190E0BEDE109286
:1002E000630010926400DAE0BB24BA94C09361000A
:1002F000C092620010936500D092600085E090E0AB
:10030000ACDE109263001092640010926500C093FE
:100310006100C0936000C093620085E090E09DDEC4
:100320001092640010926500C0936100D092620048
:10033000C09260001093630085E090E08EDE109222
:100340006000109262001092630010926500B092FB
:1003500061001093640085E090E07FDE1092600001
:10036000109261001092620010926300109264007B
:1003700010926500D15009F0B9CF2FEF83EC99E0CE
:10038000215080409040E1F700C0000081E012CF92
:04039000F894FFCF0F
:00000001FF
